:100000000C9434000C9449000C9449000C94490061
:100010000C9449000C9449000C9449000C9449003C
:100020000C9449000C9449000C9449000C9449002C
:100030000C9449000C9449000C9449000C9449001C
:100040000C9449000C9449000C9449000C9449000C
:100050000C9449000C9449000C9449000C944900FC
:100060000C9449000C94490011241FBECFEFD8E036
:10007000DEBFCDBF11E0A0E0B1E0ECECF1E002C0EA
:1000800005900D92AC3AB107D9F70E9485000C9407
:10009000E4000C940000009741F0EFE9FFE0319795
:1000A000F1F700C000000197F6CF08952D9A86E47D
:1000B00090E00E944B002D988CE291E00C944B0054
:1000C0002D9A8CE291E00E944B002D988CE291E0F9
:1000D0000C944B000F931F93CF93DF93062F182F91
:1000E000EC018C2F811B801758F48991811103C07A
:1000F0000E945600F6CF8130A1F70E946000F1CF38
:10010000DF91CF911F910F910895CF93DF93CDB7DA
:10011000DEB7CC5AD1090FB6F894DEBF0FBECDBF03
:100120008AE0E2EAF1E0DE01AD55BF4F01900D92A9
:100130008A95E1F7259A82EAE0E0F1E0DE01119686
:1001400001900D928A95E1F7B12C7E0188EAE80EC4
:10015000F11CF8E0FB1550F18E010A5F1F4F83EA96
:10016000C82ED12CCC0EDD1ECB0CD11CF60180810B
:10017000992787FD90950E94DC00F80120813327A4
:1001800027FD30952817390731F431976081C80170
:1001900005970E946A000A5F1F4F0E151F0531F771
:1001A0008CE291E00E944B00B394D3CF8CED95E0AC
:1001B0000E944B00B12CD0CF9111089581548A51E7
:0C01C00008F4805E855A0895F894FFCF83
:1001CC00FFFFFFFF00200001FFFF026101000000A4
:1001DC000462010001000463010000FF036400FFDE
:1001EC00FFFF0165000001000466010100FF0367C9
:1001FC000000000004680000FFFF0269000101011B
:10020C00046A010001FF036B00010000046C010192
:10021C00FFFF026D0100FFFF026E010101FF036F82
:10022C00000101000470010100010471000100FFD4
:10023C000372000000FF037301FFFFFF0174000055
:10024C0001FF0375000000010476000101FF037734
:10025C000100000104780100010104790101000092
:0C026C00047A796F75726520686F740069
:00000001FF
